:100000000C9458000C9480000C9480000C94800098
:100010000C9480000C9480000C9480000C94800060
:100020000C9480000C9480000C9480000C94800050
:100030000C9480000C9480000C9480000C94800040
:100040000C941C050C9480000C948C050C94660593
:100050000C9480000C9480000C9480000C94800020
:100060000C94BE050C9480000000000025002800C0
:100070002B00040404040404040402020202020229
:10008000030303030303010204081020408001025C
:1000900004081020010204081020000000080002DB
:1000A0000100000304070000000000000000DD065E
:1000B00011241FBECFEFD8E0DEBFCDBF11E0A0E01E
:1000C000B1E0ECE3F4E102C005900D92AC36B1076B
:1000D000D9F722E0ACE6B1E001C01D92AC3EB20718
:1000E000E1F710E0C8E5D0E004C02197FE010E94CE
:1000F000160AC735D107C9F70E9446070C941C0A97
:100100000C9400000895089590E0FC01E656FF4F1E
:100110002491FC01EA57FF4F3491FC01EE58FF4F48
:10012000E491EE23C9F0222339F0233001F1A8F441
:10013000213019F1223029F1F0E0EE0FFF1FE859CC
:10014000FF4FA591B4918FB7F894EC91611126C03F
:1001500030953E233C938FBF08952730A9F0283077
:10016000C9F0243049F7809180008F7D03C08091D1
:1001700080008F7780938000DFCF84B58F7784BD38
:10018000DBCF84B58F7DFBCF8091B0008F778093DC
:10019000B000D2CF8091B0008F7DF9CF3E2BDACF67
:1001A0003FB7F8948091DC019091DD01A091DE01D0
:1001B000B091DF0126B5A89B05C02F3F19F001962D
:1001C000A11DB11D3FBFBA2FA92F982F8827BC01B1
:1001D000CD01620F711D811D911D42E0660F771FD9
:1001E000881F991F4A95D1F708958F929F92AF92D9
:1001F000BF92CF92DF92EF92FF924B015C010E947F
:10020000D0006B017C010E94D0006C197D098E0921
:100210009F09683E734081059105A8F321E0821A89
:100220009108A108B10888EEC80E83E0D81EE11C31
:10023000F11C81149104A104B10429F7FF90EF90FF
:10024000DF90CF90BF90AF909F908F900895809156
:10025000D1029091D202891B990B0895AF92BF925F
:10026000CF92DF92EF92FF920F931F93CF93DF9382
:100270006C017B018B01040F151FEB015E01AE18B1
:10028000BF08C017D10759F06991D601ED91FC91D3
:100290000190F081E02DC6010995892B79F7C50100
:1002A000DF91CF911F910F91FF90EF90DF90CF9052
:1002B000BF90AF900895FC01538D448D252F30E001
:1002C000842F90E0821B930B541710F0CF96089563
:1002D00001970895FC01918D828D981761F0A28D90
:1002E000AE0FBF2FB11D5D968C91928D9F5F9F7356
:1002F000928F90E008958FEF9FEF0895FC01918D0C
:10030000828D981731F0828DE80FF11D858D90E078
:1003100008958FEF9FEF0895FC01918D228D892F15
:1003200090E0805C9F4F821B91098F7399270895FD
:100330008EE292E00E948C0121E0892B09F420E0FA
:10034000822F089580E090E0892B29F00E94980187
:1003500081110C9400000895FC01A48DA80FB92F01
:10036000B11DA35ABF4F2C91848D90E001968F73DD
:100370009927848FA689B7892C93A089B1898C91FC
:10038000837080648C93938D848D981306C002884B
:10039000F389E02D80818F7D80830895EF92FF9215
:1003A0000F931F93CF93DF93EC0181E0888F9B8D98
:1003B0008C8D98131AC0E889F989808185FF15C052
:1003C0009FB7F894EE89FF896083E889F989808175
:1003D0008370806480839FBF81E090E0DF91CF9144
:1003E0001F910F91FF90EF900895F62E0B8D10E066
:1003F0000F5F1F4F0F731127E02E8C8D8E110CC0D5
:100400000FB607FCFACFE889F989808185FFF5CF1F
:10041000CE010E94AC01F1CFEB8DEC0FFD2FF11D51
:10042000E35AFF4FF0829FB7F8940B8FEA89FB895C
:1004300080818062CFCFCF93DF93EC01888D8823BA
:10044000B9F0AA89BB89E889F9898C9185FD03C037
:10045000808186FD0DC00FB607FCF7CF8C9185FF1C
:10046000F2CF808185FFEDCFCE010E94AC01E9CFB4
:10047000DF91CF91089520918D01260F3327331FEF
:1004800021323105ECF420910602FC0190E080E07D
:10049000243069F082E00895A0918D012191AC0192
:1004A00043595E4FA40FB52FB11D2C9301968617AB
:1004B00098F380918D01680F60938D0180E008951D
:1004C00081E008951092060281E080930502109267
:1004D000E00161E082E10E94840061E083E10E942A
:1004E0008400E9EBF0E080818E7F808380818D7FC6
:1004F000808388E48093B80085E48093BC000895ED
:10050000CF93DF9391E090936C018823B9F0C09171
:10051000B800D091BA008091BC008A7B8093BC0067
:1005200060E082E10E94840060E083E10E94840038
:100530000E946202D093BA00C093B800DF91CF91BD
:1005400008958F929F92AF92BF92CF92DF92EF92D7
:10055000FF920F931F93CF93DF93D091CF02D132AD
:1005600008F0D7C0182FC0912D020E94D0006B0157
:100570007C018091060281116BC082E080930602AB
:10058000109305028FEF8093040210920302D09320
:100590000202ADE0B2E0E2EEF1E080E0D81391C0FB
:1005A0001092E1018091E101CC0FC82BC093E101D1
:1005B0008091E001813009F088C01092E0010E9432
:1005C000D0006B017C018091E1018093BB008091A0
:1005D000080290910902A0910A02B0910B02892BA6
:1005E0008A2B8B2BA1F00E94D00000910802109161
:1005F000090220910A0230910B026C197D098E09C3
:100600009F09061717072807390708F442C0809189
:10061000BC0083FDD8CF85EC8093BC000E94D00045
:100620006B017C0180910602823009F450C08091F8
:1006300004028F3F09F46FC080910402803209F4F4
:100640006CC080910402803309F469C084E026C044
:100650008091080290910902A0910A02B0910B02C8
:10066000892B8A2B8B2B09F484CF0E94D000809099
:10067000080290900902A0900A02B0900B026C1937
:100680007D098E099F0986169706A806B90608F007
:1006900070CF809107020E94800285E01092D00204
:1006A0001092CF0210920C02DF91CF911F910F9107
:1006B000FF90EF90DF90CF90BF90AF909F908F9082
:1006C00008959D9191938F5F69CF85EEA5CF80911D
:1006D000080290910902A0910A02B0910B02892BA5
:1006E0008A2B8B2B09F49ECF0E94D0000091080228
:1006F0001091090220910A0230910B026C197D09B8
:100700008E099F09061717072807390708F08ACFAF
:10071000C0CF81E0C3CF80E0C1CF82E0BFCF83E014
:10072000BDCF0895E091D2028091D102E81730F454
:10073000F0E0E055FE4F808190E008958FEF9FEF4D
:1007400008959091D2028091D1022FEF3FEF981738
:1007500048F4E92FF0E0E055FE4F208130E09F5F44
:100760009093D202C9010895CF92DF92EF92FF9247
:100770000F931F93CF93DF937C01CB018A012091CC
:100780000C02222389F0EB016B01C40ED51ECC159F
:10079000DD0569F06991D701ED91FC910190F0813F
:1007A000E02DC7010995F3CF642F0E943B02C801D9
:1007B000DF91CF911F910F91FF90EF90DF90CF903D
:1007C0000895CF93DF931F92CDB7DEB76983209151
:1007D0000C022223F9F02091CF02203258F021E0C0
:1007E00030E0FC013383228390E080E00F90DF91C2
:1007F000CF9108958091D002E82FF0E0E35FFD4FA4
:10080000998190838F5F8093D0028093CF0281E0A3
:1008100090E0ECCF61E0CE0101960E943B02F7CF61
:10082000FC01248131E030930C0220932D021092C0
:10083000D0021092CF028485682B83ED92E00E9453
:10084000E10381E00C94A102089590E080E0089516
:100850000F931F93CF938C01C62F0E9410046C2F0F
:100860006460C8010E9410046C2F6B7FC8010E9455
:10087000100483EC90E00197F1F7CF911F910F9155
:1008800008950F931F93CF93DF938C01D62FC42F1E
:10089000607F642B0E94280480E1D89FB00111245E
:1008A0006C2BC801DF91CF911F910F910C942804FC
:1008B000CF93DF93CDB7DEB728970FB6F894DEBF9E
:1008C0000FBECDBF98E0E0E0F1E0DE0111960190AF
:1008D0000D929A95E1F79091E702961708F46FEF61
:1008E000262F30E0220F331F41E050E04C0F5D1FF8
:1008F000240F351FF9016081680F606840E08FEDBB
:1009000092E028960FB6F894DEBF0FBECDBFDF9100
:10091000CF910C94410441E00E94410481E090E0B9
:100920000895FB0101900020E9F73197AF01461BC4
:10093000570BDC01ED91FC910280F381E02D0994CD
:10094000CF92DF92EF92FF920F931F93CF93DF939B
:10095000CDB7DEB7A1970FB6F894DEBF0FBECDBFFF
:10096000282F30E050E040E019A28E010F5D1F4FAC
:100970008AE0C82ED12CE12CF12CCA01B901A701C3
:1009800096010E94F409605DF80162938F012115C0
:1009900031054105510589F790E080E0309729F055
:1009A000BF018FED92E00E949104A1960FB6F894DA
:1009B000DEBF0FBECDBFDF91CF911F910F91FF9092
:1009C000EF90DF90CF90089585ED8093BC008091EB
:1009D000080290910902A0910A02B0910B020796B9
:1009E000A11DB11D23E0B695A795979587952A95EA
:1009F000D1F72091BC0024FD03C010920602089597
:100A0000409108025091090260910A0270910B0214
:100A1000452B462B472B69F30097A105B10541F003
:100A20002AE22A95F1F700C00197A109B109E1CFA7
:100A3000809107020C9480021F920F920FB60F92C2
:100A400011242F933F938F939F93AF93BF938091E4
:100A5000D8019091D901A091DA01B091DB013091D8
:100A6000D70123E0230F2D3758F50196A11DB11DA5
:100A70002093D7018093D8019093D901A093DA01F4
:100A8000B093DB018091DC019091DD01A091DE014A
:100A9000B091DF010196A11DB11D8093DC019093FF
:100AA000DD01A093DE01B093DF01BF91AF919F9173
:100AB0008F913F912F910F900FBE0F901F9018951F
:100AC00026E8230F0296A11DB11DD2CF1F920F92CF
:100AD0000FB60F9211242F933F934F935F936F9311
:100AE0007F938F939F93AF93BF93EF93FF938EE288
:100AF00092E00E94AC01FF91EF91BF91AF919F9165
:100B00008F917F916F915F914F913F912F910F90B6
:100B10000FBE0F901F9018951F920F920FB60F9255
:100B200011242F938F939F93EF93FF93E0913E02B5
:100B3000F0913F028081E0914402F091450282FDF4
:100B40001BC09081809147028F5F8F732091480274
:100B5000821741F0E0914702F0E0E25DFD4F958F92
:100B600080934702FF91EF919F918F912F910F906A
:100B70000FBE0F901F9018958081F4CF1F920F9297
:100B80000FB60F9211242F933F934F935F936F9360
:100B90007F938F939F93AF93BF93EF93FF93809136
:100BA000B900887F803609F44AC0F0F5883209F42C
:100BB000A7C018F5803109F49BC0B8F4882309F464
:100BC000F9C0883009F494C0FF91EF91BF91AF91C3
:100BD0009F918F917F916F915F914F913F912F9155
:100BE0000F900FBE0F901F901895883109F488C0A0
:100BF000803251F78093040214C0803409F49DC000
:100C000040F48033B9F38833F9F68093040285EC1D
:100C1000B0C0803509F485C0883509F496C08834A1
:100C200099F60E94E404D0CF883909F48CC038F5D5
:100C3000883729F050F4883611F0803729F683E0A0
:100C4000809306021092AF0157C0883809F47BC028
:100C5000803919F0803809F0B7CF8091AF01803228
:100C600008F071C0E091AF0181E08E0F8093AF0179
:100C70008091BB00F0E0E157FE4F80833DC0803B98
:100C800039F0E0F4803A09F479C0883A09F09CCF51
:100C900084E08093060210928E0110928D01E09103
:100CA000CB02F091CC02099580918D0181110FC08A
:100CB00081E080938D0110926D0109C0803C09F4A0
:100CC000A6CF883C09F4A3CF883B09F07DCFE09103
:100CD0008E0181E08E0F80938E01F0E0E359FE4F8C
:100CE00080818093BB0090918E0180918D0129C0FD
:100CF0008091E1018093BB0085EC8093BC0064CFC0
:100D00009091030280910202981758F5E091030236
:100D100081E08E0F80930302F0E0EE51FE4F808160
:100D2000E9CFE091030281E08E0F8093030280916E
:100D3000BB00F0E0EE51FE4F808390910302809162
:100D400002029817C8F285E8D8CFE091030281E04B
:100D50008E0F809303028091BB00F0E0EE51FE4FB6
:100D600080838091050281115CCF81E08093E00156
:100D700084EA8093BC001092060226CF85EC809313
:100D8000BC00109206028091AF01803230F4E091F5
:100D9000AF01F0E0E157FE4F10826091AF0170E0CB
:100DA000E091CD02F091CE028FE891E0099510928A
:100DB000AF010ACF1092040234CFCF92DF92EF92AC
:100DC000FF92EEE2F2E01382128288EEC82E83E0F8
:100DD000D82EE12CF12CC482D582E682F7828CE0F9
:100DE00091E09183808385EC90E09587848784EC03
:100DF00090E09787868780EC90E0918B808B81ECE8
:100E000090E0938B828B82EC90E0958B848B86ECC8
:100E100090E0978B868B118E128E138E148E10920B
:100E2000D2021092D1021092D0021092CF020E94F0
:100E3000620282E890E09093CC028093CB0283E838
:100E400090E09093CE028093CD02E3EDF2E0138226
:100E50001282C482D582E682F7828EE191E091838C
:100E60008083EFEDF2E01382128280E391E09183C0
:100E70008083118687E2848380E1828784E0838790
:100E80001486FF90EF90DF90CF900895789484B50A
:100E9000826084BD84B5816084BD85B5826085BD76
:100EA00085B5816085BD80916E00816080936E0004
:100EB00010928100809181008260809381008091F6
:100EC00081008160809381008091800081608093A7
:100ED00080008091B10084608093B1008091B00067
:100EE00081608093B00080917A00846080937A0062
:100EF00080917A00826080937A0080917A0081608C
:100F000080937A0080917A00806880937A001092B2
:100F1000C100E0913E02F0913F0282E08083E091C7
:100F20003A02F0913B021082E0913C02F0913D02C6
:100F300081E1808310924602E0914202F0914302E7
:100F400086E08083E0914002F091410280818061DF
:100F50008083E0914002F09141028081886080832B
:100F6000E0914002F0914102808180688083E091AD
:100F70004002F091410280818F7D808368E371E0BF
:100F80008EE292E00E9491041092D2021092D1025D
:100F90001092D0021092CF020E94620282E890E08A
:100FA0009093CC028093CB0283E890E09093CE02A2
:100FB0008093CD021092E4028091EA02823018F010
:100FC00098E09093E4028093E70262E370E080E0AF
:100FD00090E00E94F5006091EB028FED92E00E949C
:100FE000100468EE73E080E090E00E94F50060E39A
:100FF0008FED92E00E942804CBE4D6E4CE01019765
:10100000F1F760E38FED92E00E9428042197F1F759
:1010100060E38FED92E00E94280483E592E001975F
:10102000F1F760E28FED92E00E9428046091E40203
:10103000606240E08FED92E00E94410484E0809382
:10104000E50240E06CE08FED92E00E94410440E058
:1010500061E08FED92E00E9441048BE39FE10197F4
:10106000F1F78091E802882321F060E080E00E949F
:10107000580482E08093E60240E066E08FED92E063
:101080000E94410440E062E08FED92E00E94410442
:101090008BE39FE10197F1F788E08093EB0260E03A
:1010A0008FED92E00E94100460E086E00E945804F8
:1010B0006BE471E08FED92E00E94910411E0CAE0D0
:1010C00095EEA92E05EC20E0E22E20E0F22EDD24A4
:1010D000DA9436E0C32E88E6B82E10930C02B09254
:1010E0002D021092D0021092CF0260E083ED92E0C8
:1010F0000E94E10381E00E94A102D82F811167C103
:101100000E94D0002B013C0180910602811160C039
:101110001093060210930502D0920402109203026B
:10112000C09202021093E1018091E101806D8093F1
:10113000E1018091E001813009F022C11092E001CB
:101140000E94D0002B013C018091E1018093BB0003
:101150008091080290910902A0910A02B0910B02BD
:10116000892B8A2B8B2BA1F00E94D00020910802A2
:101170003091090240910A0250910B0264197509DD
:1011800086099709261737074807590708F441C009
:101190008091BC0083FDD8CF0093BC000E94D0009A
:1011A0002B013C0180910602813009F4ECC0809152
:1011B0000302873008F009C180910302E2EEF1E0FA
:1011C000A0EBB1E0D81749F191919D93DF5FFACF81
:1011D0008091080290910902A0910A02B0910B023D
:1011E000892B8A2B8B2B09F48FCF0E94D000209162
:1011F00008023091090240910A0250910B026419D1
:10120000750986099709261737074807590708F00F
:101210007BCF809107020E9480021092D202D0936D
:10122000D102D73008F4D3C083ED92E00E94A1032D
:10123000D82F982F929597708D2F8F709C9F800D2F
:1012400011248093D00183ED92E00E94A103982F96
:1012500092959F708F709C9F800D11248093D10177
:1012600083ED92E00E94A103982F929593708F7066
:101270009C9F800D11248093D20183ED92E00E9407
:10128000A103982F92959F708F709C9F800D1124C1
:101290008093D30183ED92E00E94A103982F929551
:1012A0009F708F709C9F800D11248093D40183EDDB
:1012B00092E00E94A103982F92959F708F709C9F3F
:1012C000800D11248093D50183ED92E00E94A1034B
:1012D000982F9F70925E82958F708C9F900D112435
:1012E0009093D601D7FD73C061E084E00E9458045A
:1012F0008091D2018A3040F460E571E08FED92E098
:101300000E9491048091D2010E94A00462E571E0E4
:101310008FED92E00E9491048091D1018A3040F4D7
:1013200060E571E08FED92E00E9491048091D1011F
:101330000E94A00462E571E08FED92E00E949104AA
:101340008091D0018A3040F460E571E08FED92E049
:101350000E9491048091D0010E94A00468EE73E085
:1013600080E090E00E94F500E114F10409F4B5CEAC
:101370000E949801882309F4AECE0E940000ABCEF3
:10138000A092BC000BCF8091080290910902A0911D
:101390000A02B0910B02892B8A2B8B2B09F402CF06
:1013A0000E94D000209108023091090240910A0267
:1013B00050910B026419750986099709261737079A
:1013C0004807590708F0EECE24CF87E0F7CE64E552
:1013D00071E08EE292E00E94910468E671E08EE294
:1013E00092E00E949104BACFA1E21A2EAA1BBB1B65
:1013F000FD010DC0AA1FBB1FEE1FFF1FA217B307E1
:10140000E407F50720F0A21BB30BE40BF50B661FF6
:10141000771F881F991F1A9469F7609570958095BA
:1014200090959B01AC01BD01CF010895EE0FFF1F08
:0C1430000590F491E02D0994F894FFCF92
:10143C00000040001400540000000000CE012E01FA
:10144C005B011B028C016A017E0100000000E103BC
:10145C00B403250491032701A103920300000000AB
:10146C008B042E0125042404496E697469616C692E
:10147C007A6174696F6E2E2E2E2E0054494D4500E4
:10148C0030003A004572726F722072656164696E49
:0C149C00672074696D652E000D0A0000C9
:00000001FF
